:03000000020AAB46
:0C0AAB00787FE4F6D8FD758120020AF285
:080D91007F757EB8DEFEDFFC79
:010D99002237
:0D0D7A003F065B4F666D7D077F6F7971400E
:100D00009000F0EDF0539080E4F5C875C820EF90A6
:100D10000D7A934290120D91539080E4F5C875C8F6
:0E0D2000109000F0E0900D7A934290020D9139
:100239004100A8004100A7004100AD004100B00005
:100249004100B70041009C0041009B004300B400FD
:1002590000004200AE00464200B200784200980019
:100269000042009600004200A500004200A9004695
:100279004200AB00784200B9000041009A004100F9
:10028900B8004100B10041009D004100A1004300B8
:0A0299009E0000004300A2000000D8
:10003E009000B4E090009EF09000B5E090009FF02C
:10004E009000B6E09000A0F02290009BE004F02219
:070DA200D2AFD2A8D28822D3
:03000300020D9A51
:080D9A00C2A8208C02D28C32A9
:100D2E00E49000A8F09000A7F09000B0F09000AD15
:0C0D3E00F09000B7F090009BF0A3F022B2
:1003D50030B2059000B080039000ADE004F09000CD
:1003E5009CE004F0E0D394A07480948F4007C28C05
:1003F500D2A8020D2E90009BE014603214606314A5
:10040500700302048B240360030204FB9000B0E038
:10041500D3940040030204FB9000ADE0D394465012
:1004250003020502120057E49000B0F0802F9000FF
:10043500B0E0FFFD9000ADE02DFDE433FCD3ED947D
:100445008CEC6480948040030204FBEFD39401504C
:100455000302050230A802C2A8120057E49000ADBD
:10046500F0229000ADE0D3940140109000B0E090F0
:1004750000A8F0E49000B0F01200579000B0E0D36F
:100485009419407980709000B0E0D39401405C905D
:1004950000ADE0FF9000A7F0E49000ADF090009B68
:1004A5007402F09000B7E0131313541FFE24B4F543
:1004B50082E43400F583E0FD25E0F09000A8E0D368
:1004C5009F400E74B42EF582E43400F583E04401B8
:1004D500F09000B7E004F0E0D39417400EC28C1200
:1004E5000D2E90009A7401F0D2A8229000ADE0D3B1
:0E04F500941940098000120D2ED2A8C28C224C
:1009740090009AE064016003020A1BF0C2A8900090
:10098400B1E0146012046003020A1912003E9000E0
:10099400B17401F0020A199000B4E0FF90009EE0E7
:1009A4006F706F9000B5E0FE90009FE06E706390F2
:1009B40000B6E0FD9000A0E06D70579000A2E06FDB
:1009C4007012A3E06E700DA3E0B5050890009DE0E1
:1009D400702080009000B4E09000A2F09000B5E098
:1009E4009000A3F09000B6E09000A4F09000B874DA
:1009F40001F090009D7401F0120DC8E49000B4F071
:100A0400A3F0A3F090009EF0A3F0A3F09000B1F047
:080A1400800312003ED2A8226B
:050DB0009000B8E0FF17
:010DB500221B
:060DB600E49000B8F022F9
:050DBC0090009DE0FF26
:010DC100220F
:060DC200E490009DF02208
:1002A3004100E00C4100E10C4100DF004100E200AD
:1002B3004100E5024100E3004100E6014100E400A2
:0402C3004100E7050A
:070DA900E075F00AA4FF222F
:100C74001200669000E0E0FFA3E0FD120D0090007A
:100C8400E2120DA99000E5E02F9000C7F09000E378
:100C9400120DA99000E6E07C002FFFEC35F0FE7DFC
:100CA40014120D4A9000BCEEF0A3EFF09000E41291
:100CB4000DA99000E7E02F75F014A49000C3F02272
:0402C7004100F20000
:100BAA009000F27401F0E49000ECF022EF75F00A84
:100BBA0084E5F0F09000E0E004F0E0C3940A2290AB
:100BCA0000E0E09000E2F09000E1E09000E5F02221
:100BDA009000E0E09000E3F09000E1E09000E6F0A1
:100BEA00229000E0E09000E4F09000E1E09000E75D
:100BFA00F0229000E0E014F09000E17409F02290F5
:100C0A0000E1E004F0E0FFC3940A229000E1E0145E
:020C1A00F022C6
:1000660020B777120D9120B77130B7FD9000DFE011
:1000760004F0E024FE601914604E240270599000CA
:10008600E0740BF09000E17401F09000DEF0804720
:100096009000DEE0FFB4010D9000E2E09000E0F099
:1000A6009000E5801CEFB4020D9000E3E09000E0C4
:1000B600F09000E6800B9000E4E09000E0F0900005
:1000C600E7E09000E1F0800FE49000DFF09000E1BF
:1000D600740CF09000E0F0120BAA20B67C120D9181
:1000E60020B67630B6FD9000DFE024FE601B04707B
:1000F600659000DEE004F0E0B404037401F09000C3
:10010600DEE09000E1F002015C9000DEE024FE609B
:100116001D14602F2402703E9000E1E0B40904E44F
:10012600F080069000E1E004F0120BC98028120C62
:1001360009400B120BB64006E4F09000E1F0120BFA
:10014600DA8013120C09400B120BB64006E4F0904D
:1001560000E1F0120BEB120BAA30B4030201FA1203
:100166000D9130B4030201FA30B4FD9000DFE024B3
:10017600FE601A04707B9000DEE014F0E0700374F9
:1001860003F09000DEE09000E1F00201F79000DE5F
:10019600E024FE601A146039240270559000E1E0F4
:1001A60070057409F08003120C15120BC980429079
:1001B60000E1E070149000E0E070097409F090002E
:1001C600E1F08008120BFC8003120C15120BDA808A
:1001D600209000E1E070149000E0E070097409F0EE
:1001E6009000E1F08008120BFC8003120C15120B34
:1001F600EB120BAA20B33B120D9120B33530B3FDA1
:100206009000DFE07003F080069000DFE014F090CD
:1002160000DFE014600B0470169000E0740CF080B0
:100226000A9000E0740BF09000DEE09000E1F0121E
:030236000BAA22EE
:10000E00120D6C120D5C120DA2120CC475B104759A
:10001E00B220E4F5917592FF75CA30F5C9C2B0D21F
:0B002E0097C2B5120C7412061580F882
:0C02CB004100E9004100EB004100E800A8
:1008BE009000E87401F0E49000EFF09000A2E0FEEA
:1008CE00EFFD3395E0FC74002DF58274003CF5834A
:1008DE00EEF09000A3E0FF74322DF58274003CF52B
:1008EE0083EFF09000A4E0FF74642DF58274003C59
:1008FE00F583EFF09000E9E004F022E0FF2401F52B
:10090E0082E43400F583E0FE74002FF582E43400B7
:10091E00F583EEF09000EAE0FF2433F582E4340034
:10092E00F583E0FE74322FF582E43400F583EEF0A9
:10093E009000EAE0FF2465F582E43400F583E0FEE2
:10094E0074642FF582E43400F583EEF09000EAE053
:10095E00229000E9E0FF3395E0FEA3E0C39FEE6432
:06096E0080F8748098225D
:100615009000CFE014602A1470030206A914700339
:100625000206C0240360030206EB1206FA60030209
:1006350006EB1206EC50031208BE9000CF7403F0CF
:1006450022D2B0120C1C9000C7E0FF9000C8E06FEA
:10065500704BD297F09000E9E06401701CA3F01292
:10066500095F500712090904F080F49000E9E014CD
:10067500F0D297E49000CFF022E49000EAF012095E
:100685005F500712090904F080F49000E9E014F0C6
:100695009000CF7403F09000EB7401F0229000CF2E
:1006A5007402F0221206FA70081206EC50031208C2
:1006B500BE9000D0E06401702D8025120974120DE2
:1006C500B0EF64017012120DB69000E9E0FFC3644B
:1006D5008094A850031208BE9000CBE0B40107E453
:1006E500F09000CF04F022120DB69000E9E0FFC3B0
:0F06F500648094A822120974120DB0EF640122E0
:1002D7006096000000000000000000000000000021
:1002E7000000000000000000000000000000000007
:1002F70000000000000000000000000000000000F7
:1003070000000000000000000000000000000000E6
:1003170000000000000000000000000000000000D6
:1003270000000000000000000000000000000000C6
:1003370000000000000000000000000000000000B6
:1003470000000000000000000000000000000000A6
:100357000000000000000000000000000000000096
:0A036700000000000000000000008C
:100C1C009000CD7401F0C2A8D28CD2A99000D6E07D
:100C2C00FEA3E0F5EAEEF5FAE02408F09000D6E039
:100C3C003402F0C2B5900000E0FF900032E0FD906D
:100C4C000064E0FB1207EE9000CDE070E6D2A8C283
:100C5C008CD2A99000C8E075F014A424199000CC93
:080C6C00F09000C8E004F02242
:080371004100DD004100DA004B
:100A1C009000DBE0FCA3E0FDC39000D9E09D9000CA
:100A2C00D8E09C229000DBA374049DF0E49C900021
:100A3C00DBF0E49000D3F09000D8F0A3F022C2D801
:100A4C009000D4E0FEA3E0F5EAEEF5FAE022900087
:100A5C00C0E004F09000C3E0FF9000C0E0D39F2200
:100A6C00E4F0A37403F09000D37401F022E4F0A33B
:100A7C0004F09000D3F0222450F09000D4E034C362
:100A8C00F0229000DDE004F09000C3E0FF9000DD68
:0F0A9C00E0D39F222408F09000D6E03402F0222D
:03003B00020503B8
:10050300C0E0C0F0C083C082C0D075D0089000CFD7
:10051300E014603A1460641470030205CC24036091
:1005230003020601120A4A120A83120DBCBF010814
:10053300120A5A400312060C9000DAE064016003C9
:10054300020601120A8E50030206010205F8C2D800
:100553009000D6120A4F120AA09000D9E004F0705E
:10056300069000D8E004F09000D3E0B40104D20078
:100573008002C200A20092B5020601120A4A120AC0
:10058300839000C6E004F09000CCE0FF9000C6E04A
:10059300B50F17C2B5E4F09000D004F0C2D89000B4
:1005A300D6120A4F120AA0020601120DBCBF010A9D
:1005B300120A5A404912060C80449000DAE06401A2
:1005C300703C120A8E4037802C120A4A120A831298
:1005D3000DBCBF010D120A5A4008120DC29000C093
:1005E300E4F09000DAE0B401159000DDE004F0E0FF
:1005F300D3947840099000DAE4F09000DDF0D0D095
:10060300D082D083D0F0D0E032120DC29000C0E48B
:02061300F022D3
:100CC400E4120A439000D3F0C200C2B5D2AFE5A249
:100CD40054CFF5A2E4F5D8F5E9F5F9F5D9A374C331
:100CE400F0A37450F0A37402F0A37408F09000D63B
:0C0CF400120A4F120AA075DA49D2DE2263
:0807EE009000F0EDF0A3EBF028
:1007F6009000DB120A79E4120A43120A1C40FB90AD
:1008060000DBE4F0A3741F120A3D120A1C40FBA988
:1008160007E4FFFEE99000DB30E705120A6C80036F
:10082600120A79E4120A43120A1C40FB120A301219
:100836000A1C40FBE925E0F90FBF00010EEF640832
:100846004E70D19000F0E0F9E4FEFFE99000DB3055
:10085600E705120A6C8003120A79120A72E4120A78
:1008660043120A1C40FB120A30120A1C40FBE925FF
:10087600E0F90FBF00010EEF64084E70CE9000F154
:10088600E0F9E4FEFFE99000DB30E705120A6C8030
:1008960003120A79120A72E4120A43120A1C40FB76
:1008A600120A30120A1C40FBE925E0F90FBF0001CD
:0708B6000EEF64084E70CE46
:0108BD002218
:100379004100BF004100D1004100CA004100CE0048
:100389004100C0004100BB004100D2004100C10052
:100399004100BE004100C9004100C2004200C40042
:1003A900004100CC014100CF004100C7024100C813
:0E03B900004200BC00144100CB004100C3789C
:0E0D6C00438901758CFF758A9CD2AFD2A922F3
:03000B00020B37AE
:100B3700C0E0C0F0C083C082C0D075D000C000C084
:100B470001C002C003C004C005C006C007C28D753E
:100B57008CFF758A9C9000CFE0B401299000C5E016
:100B670004F070069000C4E004F09000C4E0B41DE7
:100B770017A3E0B44C129000C4E4F0A3F0C2B09005
:100B870000CDF080031203D5D007D006D005D004DE
:100B9700D003D002D001D000D0D0D082D083D0F003
:030BA700D0E03269
:060DC800E49000C1F022DE
:0D03C7004200ED00004100EF004100EC009D
:0A0D8700B2979000EFE004F0E022C4
:030063000207048D
:10070400C0E0C083C082C0D075D000C006C00790CE
:1007140000CFE06403600302079F9000EBE07028C1
:100724009000EEE004F070069000EDE004F090001C
:10073400BCE0FEA3E0FF9000EDE0B50634A3E0B515
:10074400072F9000EDE480219000EEE004F07006A5
:100754009000EDE004F09000EDE07004A3E0641478
:10076400700F9000EBF09000EDF0A3F09000CB043C
:10077400F09000E8E0B4010B120D87B4020590007C
:10078400E8E4F09000F2E0640170529000ECE004C0
:10079400F0E0646470479000F2802E9000EDE4F085
:1007A400A3F09000E8E0B4010B120D87B4020590A9
:1007B40000E8E4F09000F2E0B401229000ECE004E0
:1007C400F0E0B464189000F2E4F09000ECF09000D3
:1007D400E0740CF09000E1F09000DFE4F0D007D07A
:0A07E40006D0D0D082D083D0E032DE
:100D5C00538EFB75D7B075D63C438E1043AF04222F
:100AB70002000EE493A3F8E493A34003F68001F247
:100AC70008DFF48029E493A3F85407240CC8C33340
:100AD700C4540F4420C8834004F456800146F6DF0F
:100AE700E4800B0102040810204080900239E47E64
:100AF700019360BCA3FF543F30E509541FFEE49304
:100B0700A360010ECF54C025E060A840B8E493A3CA
:100B1700FAE493A3F8E493A3C8C582C8CAC583CAF5
:100B2700F0A3C8C582C8CAC583CADFE9DEE780BEAD
:0103D4000028
:100D4A00EF8DF0A4A8F0CF8CF0A428CE8DF0A42EBD
:020D5A00FE2277
:00000001FF
